:1000000019C033C032C031C030C0ADC02EC02DC009
:100010002CC02BC02AC029C028C027C026C025C09C
:1000200024C023C022C021C020C01FC01EC01DC0CC
:100030001CC01BC011241FBECFEFD4E0DEBFCDBF5C
:1000400011E0A0E0B1E0ECE3F2E002C005900D9217
:10005000A230B107D9F721E0A2E0B1E001C01D92C2
:10006000A530B207E1F70CD0E7C000C01F920F9295
:100070000FB60F9211240F900FBE0F901F9018957E
:1000800080EF8AB98FED8BB98FEF84B987B98091F2
:10009000680084608093680080916D008F60809319
:1000A0006D00789480E090E04FE75FE73FE72FE74F
:1000B00071E06FEEF62EE4E0EE2EAFEBB8E0CFE7A6
:1000C000D2E01FEDF894609104016130B9F4009121
:1000D0000201011113C000910001E7EAF1E6319736
:1000E000F1F700C0000055B1505855B91092040105
:1000F00060930201542F432F322F202F78940196C2
:100100008430910564F48230910579F08330910553
:1001100081F0D8B945B91BB981E090E00DC078B93C
:1001200055B9FBB880E090E007C0E8B835B9ABB985
:1001300003C0B8B925B9CBB960910401613039F475
:1001400060910201613019F410920401BBCF6091FB
:1001500004016111B7CF60910201613009F0B2CFA3
:1001600010920201AFCF1F920F920FB60F9211247F
:100170002F938F939F9399B180910301892729B180
:100180002F3D89F4000080FF02C089EF46C081FF47
:1001900002C084EA42C082FF02C080EB3EC083FFFF
:1001A00041C088E83AC029B12F3B89F4000080FFA4
:1001B00002C089E932C081FF02C082E92EC082FFFD
:1001C00002C082E82AC083FF2DC083E826C029B17F
:1001D0002F3789F4000080FF02C088EF1EC081FF26
:1001E00002C080E81AC082FF02C080E916C083FF07
:1001F00019C086EC12C029B12F3EA1F480FF02C0C5
:100200008FE80BC081FF02C080EC07C082FF02C0F4
:1002100089E803C083FF06C081EA8093000181E082
:1002200080930401909303019F918F912F910F90E0
:0C0230000FBE0F901F901895F894FFCFA0
:02023C00C00000
:00000001FF
