:1000000012C019C018C017C016C015C014C013C044
:1000100012C011C010C00FC00EC00DC00CC00BC06C
:100020000AC009C008C011241FBECFE5D4E0DEBF5E
:10003000CDBF02D03CC0E4CF80EF81BB8FEF82BB4D
:1000400087BB84BB81E085BB8FE79FEE2FE73FED49
:100050004FEB88BB92BB0000809902C089EF01C0C2
:100060008FE7819B84EA829B80EB839B88E832BB8D
:100070000000809B89E9819B82E9829B82E8839BC7
:1000800083E842BB0000809B88EF819B80E8829BD5
:1000900080E9839B86EC22BB0000809B8FE8819BDC
:1000A00080EC829B89E88399D4CF81EAD2CFF894FF
:0200B000FFCF80
:00000001FF
