:1000000012C019C018C017C016C015C014C013C044
:1000100012C011C010C00FC00EC00DC00CC00BC06C
:100020000AC009C008C011241FBECFE5D4E0DEBF5E
:10003000CDBF02D090C0E4CF80EF81BB8FEF82BBF9
:1000400087BB84BB20E030E090EC40E080E07FE7BD
:10005000EFE76FE75FE7F1E0A4E0B8E0C2E0DFEED2
:100060001FED0FEB0F2EFFE7FF2EF02D2F5F3F4F01
:10007000243031055CF42230310569F0233031053C
:1000800069F0C5BB78BB21E030E00AC0F5BBE8BB36
:1000900020E030E005C0A5BB68BB02C0B5BB58BBC3
:1000A000D2BB0000809902C081E099EF819902C023
:1000B00081E094EA829902C081E090EB839902C0CA
:1000C00081E098E812BB0000809902C081E099E9C4
:1000D000819902C081E092E9829902C081E092E8B0
:1000E000839902C081E093E802BB0000809902C0BE
:1000F00081E098EF819902C081E090E8829902C086
:1001000081E090E9839902C081E096ECF2BA0000A8
:10011000809902C081E09FE8819902C081E090EC63
:10012000829902C081E099E8839B05C0813021F06B
:1001300040E080E09BCF91EA842F8F2709F496CF8F
:10014000411106C0E72F762F652F592F41E0F1CFDF
:0A01500041E081E08BCFF894FFCF6F
:00000001FF
