:1000000019C033C032C031C030C02FC02EC02DC087
:100010002CC02BC02AC029C028C027C026C025C09C
:1000200024C023C022C021C020C01FC01EC01DC0CC
:100030001CC01BC011241FBECFEFD4E0DEBFCDBF5C
:1000400011E0A0E0B1E0E2EFF1E002C005900D9216
:10005000A630B107D9F721E0A6E0B1E001C01D92BA
:10006000A830B207E1F79DD0C2C0CACF8091070186
:100070008823B9F0809106018091010180930201EB
:100080008091030180930101809104018093030119
:1000900080910001809304011092070181E0809318
:1000A000060108958130910579F01CF4892B39F00F
:1000B00008958230910569F0039781F0089581E0F9
:1000C00088B9809102010EC082E088B98091010157
:1000D00009C084E088B98091030104C088E088B930
:1000E0008091040185B908958FEE8BB9000048997D
:1000F00002C089EF0BC0499902C084EA07C04A993F
:1001000002C080EB03C04B9906C088E880930001D1
:1001100081E0809307018FED8BB90000489902C000
:1001200089E90BC0499902C082E907C04A9902C017
:1001300082E803C04B9906C083E88093000181E008
:10014000809307018FEB8BB90000489902C088EFBC
:100150000BC0499902C080E807C04A9902C080E9F3
:1001600003C04B9906C086EC8093000181E0809328
:1001700007018FE78BB90000489902C08FE80BC0D8
:10018000499902C080EC07C04A9902C089E803C0BF
:100190004B9906C081EA8093000181E080930701BA
:1001A000089580EF8AB98FEF8BB984B987B9C0E021
:1001B000D0E05CDF2196C430D10514F0C0E0D0E07F
:1001C000CE0170DF91DF80910701882339F08091A3
:1001D0000601882319F010920701EBCF80910701E7
:1001E00080910601882329F310920601E2CFF8944A
:0201F000FFCF3F
:0601F200C07F7F7F7F004B
:00000001FF
